:040000000128FE2FA6
:100E9E007508F2007408F10041307A270800F0005E
:100EAE002000111E572F700823009A000800F4002E
:100EBE007408F3007308F10031306E270800F50056
:100ECE00F101F10A35306E2775085E270800F20031
:100EDE007E3056270330562772085627710856273C
:100EEE00EF3056270800F3007E3056270430562781
:100EFE00730856277208562771085627EF30562763
:100F0E00080023001F109F139F111F129F109D1189
:100F1E001D121D139D171E159E111E121E139E16B9
:100F2E0068309B009C01080023008C013F3021009B
:100F3E008C009513FF3024008C0025008C012200BC
:100F4E009D0121009913783099041908FC39023853
:100F5E00990008009B2788276830F600E430890B3B
:100F6E00B62FF60BB62F0032083066270530F70085
:100F7E000F30F600F130890BC22FF60BC22FF70B94
:100F8E00C22F00003E3020000C05F6003E307606E3
:100F9E000319C92F8C18D52F0130E42F0C19D92F16
:100FAE000230E42F8C19DD2F0330E42F0C1AE12FC1
:100FBE000430E42F8C1AE82F0530F4000030F500D1
:100FCE004F270A30F6007608F8000130F802780A4A
:100FDE000319C92F0530F7000F30F600F130890BD9
:100FEE00F62FF60BF62FF70BF62F0000EC2F200046
:020FFE00B12F11
:020000040001F9
:04000E0084FFFFDE8E
:00000001FF
